:020000040000FA
:04000000C8EF23F032
:100800000054797065203220666F722054454D5037
:10081000455241200054797065203120666F722066
:10082000564F4C544147452000496E74726F6475B1
:1008300063652076616C6F723A20003220666F72B9
:100840002054454D504552415455004465204C7547
:100850006E6120506F6E6365004A75616E2044655D
:100860002044696F730025302E336620566F6C74F8
:10087000730025302E336600256420B000494E46B3
:10088000004E414E00696E66006E616E006C66003F
:1008900025640000000E0001826F000E816F62C0AF
:1008A00093F063C094F064C095F065C096F096BF75
:1008B0005EEF04F05CEF04F074EF04F0000E826F62
:1008C000010E816F93C001F094C002F095C003F057
:1008D00096C004F059EC25F001C093F002C094F0EA
:1008E00003C095F004C096F0000E00019A6F000E50
:1008F000996F12C186F013C187F081518211D8A47B
:1009000084EF04F086EF04F08DEF04F0F1A58BEF97
:1009100004F08DEF04F0A7EF04F081518211D8A408
:1009200094EF04F096EF04F09CEF04F0000E6C6F6F
:100930002B0E6B6FA0EF04F0000E6C6F2D0E6B6F23
:100940006BC01AF1994B9A2B8607D8A0870793C0E2
:1009500001F094C002F095C003F096C004F045EC9D
:1009600020F001040210D8A4B8EF04F0BAEF04F0AC
:1009700011EF05F0BF0E5B6EFF0E5C6E000166515D
:100980005D6E5E6A5B505D265C505E225E500AE1E1
:100990001A0E5D5CD8A0CFEF04F0D2EF04F0010E88
:1009A000D3EF04F0000E6D6F6E6B6D516E11D8B405
:1009B000DCEF04F0DEEF04F0ECEF04F01A0E992502
:1009C000016E010E9A21026E7D0E036E080E046EFA
:1009D0009AEC23F0F8EF04F01A0E9925016E010E3F
:1009E0009A21026E850E036E080E046E9AEC23F0B7
:1009F0000001FD0E8627FF0E872360C011F061C045
:100A000012F01A0E136E010E146E86C015F087C018
:100A100016F094EC21F011C060F012C061F021EFEB
:100A20000AF093C001F094C002F095C003F096C0A4
:100A300004F045EC20F001500210D8A422EF05F09C
:100A400024EF05F064EF05F0BF0E5B6EFF0E5C6EE9
:100A5000000166515D6E5E6A5B505D265C505E22F1
:100A60005E500AE11A0E5D5CD8A039EF05F03CEF4C
:100A700005F0010E3DEF05F0000E6F6F706B6F51CA
:100A80007011D8B446EF05F048EF05F056EF05F0C9
:100A90001A0E9925016E010E9A21026E810E036EC7
:100AA000080E046E9AEC23F0F8EF04F01A0E992564
:100AB000016E010E9A21026E890E036E080E046EFD
:100AC0009AEC23F0F8EF04F0000E00019B6F000E8B
:100AD0009C6F800E9D6F3F0E9E6F000E986F000EF4
:100AE000976F93C001F094C002F095C003F096C0D8
:100AF00004F0000E056E000E066E000E076E000E6E
:100B0000086EB1EC22F0D8B088EF05F08AEF05F05E
:100B10000DEF06F0A9EF05F09BC00FF09CC010F0A0
:100B20009DC011F09EC012F0000E136E000E146EE8
:100B3000200E156E410E166E7BEC0FF00FC09BF071
:100B400010C09CF011C09DF012C09EF00001974BA8
:100B5000982B93C028F094C029F095C02AF096C035
:100B60002BF0000E136E000E146E200E156E410E4B
:100B7000166E9BC00FF09CC010F09DC011F09EC07F
:100B800012F07BEC0FF00FC02CF010C02DF011C054
:100B90002EF012C02FF0C3EC1FF0D8B0D2EF05F04A
:100BA000D4EF05F08CEF05F0F4EF05F09BC028F0D2
:100BB0009CC029F09DC02AF09EC02BF0000E2C6E28
:100BC000000E2D6E200E2E6E410E2F6E90EC11F049
:100BD00028C09BF029C09CF02AC09DF02BC09EF03D
:100BE00000019707D8A0980793C028F094C029F077
:100BF00095C02AF096C02BF09BC02CF09CC02DF025
:100C00009DC02EF09EC02FF0C3EC1FF0D8A00BEFBC
:100C100006F00DEF06F0D6EF05F066C007F0086AA3
:100C20003BEC23F007500001886F88C085F0670E09
:100C30008819D8A41EEF06F020EF06F046EF06F064
:100C4000EF51F011D8A427EF06F029EF06F02DEFB1
:100C500006F0000EF06F010EEF6FF0BF3AEF06F0F6
:100C6000F05106E1EF05D8B038EF06F03AEF06F0A4
:100C700040EF06F0000E846F060E836F4FEF06F014
:100C8000EFC083F0F0C084F04FEF06F0F0BF4BEF01
:100C900006F04DEF06F03AEF06F040EF06F0670E73
:100CA0008819D8A456EF06F058EF06F087EF06F043
:100CB00098AF66EF06F0FC0E975DFF0E9859D8A02E
:100CC00064EF06F066EF06F085EF06F0FF0E5B6E50
:100CD000FF0E5C6E83C05DF084C05EF05B505D26ED
:100CE0005C505E2297515D5C5E50800A5F6E985149
:100CF000800A5F58D8A07FEF06F081EF06F085EFFD
:100D000006F0660E856F87EF06F0650E856F83C06F
:100D10007BF084C07CF0670E8819D8A492EF06F0AF
:100D200094EF06F0A4EF06F0660E8519D8A49BEFA9
:100D300006F09DEF06F0A6EF06F098BFA4EF06F0D0
:100D4000A2EF06F0A6EF06F07B4B7C2B660E851912
:100D5000D8A4ADEF06F0AFEF06F0CFEF06F098BFE6
:100D6000B6EF06F0B4EF06F0C2EF06F0000E9B6F90
:100D7000000E9C6F800E9D6F3F0E9E6F000E986F51
:100D8000000E976F670E8819D8B4C9EF06F0CBEF45
:100D900006F0CFEF06F097517B2798517C23000E89
:100DA000926F000E916F93C089F094C08AF095C045
:100DB0008BF096C08CF09BC067F09CC068F09DC023
:100DC00069F09EC06AF060EF07F089C028F08AC021
:100DD00029F08BC02AF08CC02BF09BC02CF09CC05B
:100DE0002DF09DC02EF09EC02FF090EC11F028C089
:100DF00041F029C042F02AC043F02BC044F01FEC60
:100E00001BF041C08DF042C08EF043C08FF044C053
:100E100090F08DC051F08EC052F08FC053F090C052
:100E200054F040EC1FF051C07FF052C080F089C0F8
:100E300051F08AC052F08BC053F08CC054F09BC06C
:100E400013F09CC014F09DC015F09EC016F08DC02C
:100E50000FF08EC010F08FC011F090C012F07BEC3C
:100E60000FF00FC055F010C056F011C057F012C06F
:100E700058F0B8EC24F051C089F052C08AF053C049
:100E80008BF054C08CF09BC028F09CC029F09DC012
:100E90002AF09EC02BF0000E2C6E000E2D6E200E40
:100EA0002E6E410E2F6E90EC11F028C09BF029C0E1
:100EB0009CF02AC09DF02BC09EF00001914B922B1C
:100EC0007B51915D9251800A5B6E7C51800A5B5828
:100ED000D8A06DEF07F06FEF07F0E5EF06F09BC0CD
:100EE0000FF09CC010F09DC011F09EC012F0000EDB
:100EF000136E000E146EA00E156E400E166E7BEC77
:100F00000FF00FC08DF010C08EF011C08FF012C026
:100F100090F089C028F08AC029F08BC02AF08CC0DC
:100F20002BF08DC02CF08EC02DF08FC02EF090C015
:100F30002FF0C3EC1FF0D8B0A0EF07F0A2EF07F03E
:100F4000ADEF07F0000E00018D6F000E8E6F000EEA
:100F50008F6F000E906FD6EF07F089C001F08AC046
:100F600002F08BC003F08CC004F08DC005F08EC081
:100F700006F08FC007F090C008F0B1EC22F0D8A0C6
:100F8000C4EF07F0C6EF07F0D6EF07F000017FB11E
:100F9000CCEF07F0CEEF07F0D6EF07F0000E8D6F25
:100FA000000E8E6F000E8F6F000E906F93C041F099
:100FB00094C042F095C043F096C044F08DC045F017
:100FC0008EC046F08FC047F090C048F01BEC0DF08B
:100FD00041C089F042C08AF043C08BF044C08CF01D
:100FE00067C09BF068C09CF069C09DF06AC09EF02D
:100FF000650E00018519D8B400EF08F002EF08F083
:1010000008EF08F097C07DF098C07EF00CEF08F074
:10101000000E7E6F000E7D6F000E7A6F000E796FEE
:10102000000E786F000E776F000E926F000E916FBA
:1010300007EF09F089C028F08AC029F08BC02AF098
:101040008CC02BF09BC02CF09CC02DF09DC02EF0CE
:101050009EC02FF090EC11F028C041F029C042F062
:101060002AC043F02BC044F01FEC1BF041C08DF0B0
:1010700042C08EF043C08FF044C090F08DC051F05C
:101080008EC052F08FC053F090C054F040EC1FF06F
:1010900051C07FF052C080F00001F1B952EF08F06A
:1010A00054EF08F071EF08F07F518011D8A45BEF86
:1010B00008F05DEF08F071EF08F0670E8819D8A40A
:1010C00064EF08F066EF08F071EF08F07EBF6DEF97
:1010D00008F06BEF08F071EF08F0774B782BBBEF5F
:1010E00008F079517A11D8A478EF08F07AEF08F077
:1010F000A4EF08F07EBF81EF08F07FEF08F0A4EFC7
:1011000008F01A0E9925D96E010E9A21DA6E2E0E6C
:10111000DF6E994B9A2B8607D8A08707000E7A6F4F
:10112000010E796FA4EF08F01A0E9925D96E010E01
:101130009A21DA6E300EDF6E994B9A2B8607D8A073
:1011400087077707D8A0780777517811D8A4ABEF35
:1011500008F0ADEF08F094EF08F01A0E9925D96E5B
:10116000010E9A21DA6E7F51300FDF6E994B9A2B68
:101170008607D8A0870789C051F08AC052F08BC07B
:1011800053F08CC054F09BC013F09CC014F09DC071
:1011900015F09EC016F08DC00FF08EC010F08FC0FD
:1011A00011F090C012F07BEC0FF00FC055F010C0A2
:1011B00056F011C057F012C058F0B8EC24F051C0EE
:1011C00089F052C08AF053C08BF054C08CF09BC0A1
:1011D00028F09CC029F09DC02AF09EC02BF0000E84
:1011E0002C6E000E2D6E200E2E6E410E2F6E90EC8A
:1011F00011F028C09BF029C09CF02AC09DF02BC0A4
:101200009EF000017D07D8A07E07914B922B7B5169
:10121000915D9251800A5B6E7C51800A5B58D8B018
:1012200014EF09F016EF09F024EF09F09ABF22EF4E
:1012300009F09A5109E14B0E995DD8A022EF09F00F
:1012400024EF09F01AEF08F079517A11D8A42BEFA6
:1012500009F02DEF09F03EEF09F0F1A932EF09F0A6
:1012600034EF09F03EEF09F01A0E9925D96E010E00
:101270009A21DA6E2E0EDF6E994B9A2B1A0E992553
:10128000D96E010E9A21DA6E000EDF6E650E851999
:10129000D8A44DEF09F04FEF09F0FDEF04F0000E78
:1012A000926F4F0E916F1A0E9125D96E010E9221F9
:1012B000DA6E000EDF6E000E826F000E816F98BF37
:1012C00066EF09F064EF09F06EEF09F0000E826F2F
:1012D000010E816F976D981FD8B0982B000E846F08
:1012E000020E836F9FEF09F09107D8A092071A0EA4
:1012F0009125D96E010E9221DA6E97C001F098C047
:1013000002F0000E046E0A0E036E59EC22F001503A
:10131000300FDF6E97C001F098C002F0000E046E2F
:101320000A0E036EF7EC21F001C097F002C098F0AE
:1013300000018307D8A084078607D8A087079751A4
:101340009811D8A4A6EF09F0A8EF09F074EF09F0FE
:1013500084BFB5EF09F0845106E18305D8B0B3EF3F
:1013600009F0B5EF09F074EF09F09107D8A09207E2
:1013700081518211D8A4BFEF09F0C1EF09F0C7EF86
:1013800009F0000E726F2B0E716FCBEF09F0000E9B
:10139000726F2D0E716F1A0E9125D96E010E92216A
:1013A000DA6E71C0DFFF8607D8A087079107D8A043
:1013B0009207BF0E5B6EFF0E5C6E66515D6E5E6ADD
:1013C0005B505D265C505E225E500AE11A0E5D5C49
:1013D000D8A0EDEF09F0F0EF09F0010EF1EF09F000
:1013E000000E756F766B75517611D8A4FAEF09F07F
:1013F000FCEF09F002EF0AF0000E746F650E736FD8
:1014000006EF0AF0000E746F450E736F1A0E9125E9
:10141000D96E010E9221DA6E73C0DFFF8607D8A065
:1014200087071A0E9925016E010E9A21026E1A0E77
:101430009125036E010E9221046E9AEC23F0FDEFCC
:1014400004F01200A1C0D9FFA2C0DAFFDECFF6FF80
:10145000DDCFF7FF0800F550250AD8A432EF0AF0D7
:1014600034EF0AF0FFEF0CF0A1C0D9FFA2C0DAFF01
:10147000DE2A000EDD22000E0101136F000E126F36
:1014800012C1F1F013C1F2F00001EF69F069000E32
:10149000B26F000EB16F93EF0AF0F181A1C0D9FFD6
:1014A000A2C0DAFFDE2A000EDD2293EF0AF0F183FC
:1014B0004EEF0AF0F1854EEF0AF0F1874EEF0AF099
:1014C000F1894EEF0AF0000EB26F010EB16F93EF8B
:1014D0000AF0A1C0D9FFA2C0DAFFDECFF6FFDDCF50
:1014E000F7FF0800F550A56FA66BA651000AD8B407
:1014F0007CEF0AF063EF0AF0A551200AD8B45DEF43
:101500000AF0030AD8B460EF0AF0080AD8B45AEF18
:101510000AF0060AD8B44DEF0AF01D0AD8B457EF06
:101520000AF063EF0AF0B151B211D8B49AEF0AF0A1
:101530009CEF0AF069EF0AF0F1A1A1EF0AF0A3EF26
:101540000AF0A4EF0AF0F193A1C0D9FFA2C0DAFF1C
:10155000DECFF6FFDDCFF7FF0800F5502E0AD8A446
:10156000B4EF0AF0B6EF0AF034EF0BF0000EF06FB4
:10157000000EEF6FA1C0D9FFA2C0DAFFDE2A000E75
:10158000DD22A1C0D9FFA2C0DAFFDECFF6FFDDCF9A
:10159000F7FF0800F5502A0AD8A4D1EF0AF0D3EFDC
:1015A0000AF0F0EF0AF0A1C0D9FFA2C0DAFFDE2AEC
:1015B000000EDD22A3C0D9FFA4C0DAFFDFCFA5F063
:1015C000020EDE26DFCFA6F0000EDD22A5C0D9FF79
:1015D000A6C0DAFFDECFEFF0DDCFF0F034EF0BF096
:1015E000A1C0D9FFA2C0DAFFDECF08F0DDCF09F03D
:1015F00002EC1DF008C0EFF009C0F0F007EF0BF0AF
:10160000A1C0D9FFA2C0DAFFDE2A000EDD22D00E73
:101610000001A56FFF0EA66FA1C0D9FFA2C0DAFF1F
:10162000DECFF6FFDDCFF7FF0800F550A76FA86B00
:10163000A551A727A651A823A8510AE10A0EA75D24
:10164000D8A025EF0BF028EF0BF0010E29EF0BF0DF
:10165000000EB36FB46BB351B411D8A432EF0BF0DA
:1016600034EF0BF000EF0BF0A1C0D9FFA2C0DAFFFE
:10167000DECFF6FFDDCFF7FF0800F550076E086AF2
:101680003BEC23F007500001BB6FBB51D8B44BEFCC
:101690000BF04DEF0BF087EF0BF0A1C0D9FFA2C00C
:1016A000DAFFDECFA5F0DDCFA6F0010EA527000EF4
:1016B000A623A5C0F6FFA6C0F7FF0800F550076EE9
:1016C000086A3BEC23F007500001BC6FBC51D8B452
:1016D0006CEF0BF06EEF0BF087EF0BF0A1C0D9FFB2
:1016E000A2C0DAFFDECFA5F0DDCFA6F0020EA5275F
:1016F000000EA623A5C0F6FFA6C0F7FF0800F55010
:10170000076E086A3BEC23F007500001BD6FA1C0D3
:10171000D9FFA2C0DAFFDECFF6FFDDCFF7FF08006A
:10172000F550640AD8B497EF0BF099EF0BF0ABEFDC
:101730000BF0A1C0D9FFA2C0DAFFDECFF6FFDDCFEC
:10174000F7FF0800F550690AD8A4A9EF0BF0ABEF3A
:101750000BF0EBEF0BF0A1C0D9FFA2C0DAFFDE2A3D
:10176000000EDD22A3C0D9FFA4C0DAFFDFCFA5F0B1
:10177000020EDE26DFCFA6F0000EDD22A5C0D9FFC7
:10178000A6C0DAFFDECFA9F0DDCFAAF0000EAABF17
:10179000FF0EAB6FAC6FAD6FAE6FAF6FB06F9FC032
:1017A0001CF0A0C01DF0A9C01EF0AAC01FF0ABC065
:1017B00020F0ACC021F0ADC022F0AEC023F0AFC02D
:1017C00024F0B0C025F0DDEC14F01CC09FF01DC06B
:1017D000A0F01AEF0DF0660EBB19D8A4F2EF0BF0D3
:1017E000F4EF0BF034EF0CF0A1C0D9FFA2C0DAFF88
:1017F000DECFF6FFDDCFF7FF0800F5CFBEF0A1C0CA
:10180000D9FFA2C0DAFFDE2A000EDD22A3C0D9FF75
:10181000A4C0DAFFDFCFA5F0040EDE26DFCFA6F0EE
:10182000000EDD22A5C0D9FFA6C0DAFFDECFB7F0DB
:10183000DECFB8F0DECFB9F0DECFBAF09FC060F0F7
:10184000A0C061F0B7C062F0B8C063F0B9C064F086
:10185000BAC065F0BEC066F04AEC04F060C09FF00C
:1018600061C0A0F01AEF0DF0BB0E016E000E026E0B
:101870008D0E036E080E046E000E066E020E056ECF
:10188000C4EC20F001500210D8A449EF0CF04BEF4B
:101890000CF0C7EF0CF0A1C0D9FFA2C0DAFFDECF79
:1018A000A5F0DDCFA6F0010E0001A527000EA623AE
:1018B000A5C0F6FFA6C0F7FF0800F5CFBEF0BF0E2B
:1018C000A56FFF0EA66FA1C0D9FFA2C0DAFFDECFC1
:1018D000F6FFDDCFF7FF0800F550A76FA86BA55105
:1018E000A727A651A823A8510AE11A0EA75DD8A0E0
:1018F0007CEF0CF07FEF0CF0010E80EF0CF0000E8F
:10190000B56FB66BB551B611D8B489EF0CF08BEF4B
:101910000CF0A5EF0CF0A3C0D9FFA4C0DAFFDFCF15
:10192000A5F0040EDE26DFCFA6F0000EDD22A5C056
:10193000D9FFA6C0DAFFDECFB7F0DECFB8F0DECF3A
:10194000B9F0DECFBAF0BDEF0CF0A3C0D9FFA4C050
:10195000DAFFDFCFA5F0040EDE26DFCFA6F0000E03
:10196000DD22A5C0D9FFA6C0DAFFDECFB7F0DECFFB
:10197000B8F0DECFB9F0DECFBAF0020EA1C0D9FFC9
:10198000A2C0DAFFDE26000EDD221EEF0CF0A1C0A1
:10199000D9FFA2C0DAFFDECFF6FFDDCFF7FF0800E8
:1019A000F550250AD8A4D7EF0CF0D9EF0CF0F1EFE1
:1019B0000CF0A1C0D9FFA2C0DAFFDE2A000EDD22A2
:1019C000000E026E250E016E9FC003F0A0C004F051
:1019D0002FEC21F0000E0001A06F010E9F6F1AEF97
:1019E0000DF0A1C0D9FFA2C0DAFFDE2A000EDD2271
:1019F000000E0001A06F000E9F6F1AEF0DF0A1C046
:101A0000D9FFA2C0DAFFDECFF6FFDDCFF7FF080077
:101A1000F550016E026A9FC003F0A0C004F02FECE5
:101A200021F0A1C0D9FFA2C0DAFFDE2A000EDD221C
:101A3000EAEF0CF012004450800B4D6E44504424E9
:101A40004F6E43AE26EF0DF028EF0DF029EF0DF0AD
:101A50004F804F50D8B42FEF0DF031EF0DF046EF1F
:101A60000DF04F28D8A437EF0DF039EF0DF041EF0E
:101A70000DF0000E416E000E426E000E436E000E21
:101A8000446E438E000E446E4EEF0DF0000E416E1C
:101A9000000E426E000E436E000E446E4850800BE6
:101AA0004E6E4D504E18D8B458EF0DF05AEF0DF061
:101AB0005BEF0DF04D8C485048244E6E47AE63EFFF
:101AC0000DF065EF0DF066EF0DF04E804E50D8B47E
:101AD0006CEF0DF06EEF0DF083EF0DF04E28D8A4F3
:101AE00074EF0DF076EF0DF07EEF0DF0000E456E09
:101AF000000E466E000E476E000E486E478E000EBA
:101B0000486E8BEF0DF0000E456E000E466E000E17
:101B1000476E000E486E4F504E5CD8B092EF0DF0FD
:101B200094EF0DF0BBEF0DF04DAC99EF0DF09BEF86
:101B30000DF09DEF0DF0800E4D1A4FC050F04EC0CD
:101B40004FF050C04EF041C050F045C041F050C081
:101B500045F042C050F046C042F050C046F043C08D
:101B600050F047C043F050C047F044C050F048C068
:101B700044F050C048F0000E506E4F504EC049F037
:101B80004A6A495E000E4A5A4ABED0EF0DF04A50EA
:101B900009E11A0E495CD8A0D0EF0DF0D2EF0DF09C
:101BA00009EF0EF04150421043104410D8A4DBEF6F
:101BB0000DF0DEEF0DF0010EDFEF0DF0000E506EB8
:101BC000000E416E000E426E000E436E000E446E1B
:101BD0004EC04FF012EF0EF050A0F1EF0DF0F3EF0A
:101BE0000DF0F9EF0DF0D89050300109506EFBEF79
:101BF0000DF0D890503241A000EF0EF002EF0EF041
:101C000003EF0EF0508E44344432433242324132BC
:101C10004F2A4E504F5CD8A010EF0EF012EF0EF08E
:101C2000ECEF0DF04DBC17EF0EF019EF0EF059EF81
:101C30000EF04F50D8A41FEF0EF021EF0EF02BEF57
:101C40000EF0000E416E000E426E000E436E000E4E
:101C5000446E7AEF0FF045504126465042224750DD
:101C600043224850442244A038EF0EF03AEF0EF0E1
:101C7000E6EF0EF050A03FEF0EF041EF0EF047EF11
:101C80000EF0D89050300109506E49EF0EF0D89008
:101C9000503241A04EEF0EF050EF0EF051EF0EF02B
:101CA000508E443444324332423241324F2AE6EFBE
:101CB0000EF04550415C46504258475043584450FE
:101CC000800A496E4850800A4958D8B06AEF0EF031
:101CD0006CEF0EF097EF0EF04150455C496E4250AC
:101CE00046584A6E435047584B6E445048584C6EC5
:101CF000FF0E4924416EFF0E4A20426EFF0E4B201C
:101D0000436EFF0E4C20446E800E4D1A506C5050A6
:101D1000D8A48DEF0EF08FEF0EF09FEF0EF0010EB6
:101D20004126000E4222432244229FEF0EF04550EE
:101D3000415E4650425A4750435A4850445A4150D7
:101D4000421043104410D8A4A8EF0EF0AAEF0EF0F2
:101D5000DFEF0EF05050D8A4B0EF0EF0B2EF0EF05F
:101D6000DFEF0EF0000E416E000E426E000E436E6D
:101D7000000E446E7AEF0FF0D8904136423643366B
:101D8000443650AEC6EF0EF0C8EF0EF0C9EF0EF0BD
:101D9000418050A0CEEF0EF0D0EF0EF0D4EF0EF059
:101DA000D8805036D6EF0EF0D89050364F50D8B479
:101DB000DCEF0EF0DEEF0EF0DFEF0EF04F0643AE7D
:101DC000E4EF0EF0E6EF0EF0BCEF0EF0000E4E6EFC
:101DD00050AEEDEF0EF0EFEF0EF007EF0FF050C04A
:101DE00049F07F0E4916D8B4F8EF0EF0FAEF0EF076
:101DF000FEEF0EF0010E4E6E07EF0FF041A003EF65
:101E00000FF005EF0FF007EF0FF0FAEF0EF04E5066
:101E1000D8B40DEF0FF00FEF0FF03AEF0FF0010E07
:101E20004126000E42224322442244A01AEF0FF022
:101E30001CEF0FF03AEF0FF041C049F042C04AF0FA
:101E400043C04BF044C04CF04C344C324B324A321D
:101E5000493249C041F04AC042F04BC043F04CC047
:101E600044F04F28D8B437EF0FF039EF0FF03AEFC6
:101E70000FF04F2A4F28D8B440EF0FF042EF0FF089
:101E80004AEF0FF04F50D8A448EF0FF04AEF0FF091
:101E90005CEF0FF0000E416E000E426E000E436EBE
:101EA000000E446E4F50D8A458EF0FF05AEF0FF0C9
:101EB0005CEF0FF0000E4D6E4FA061EF0FF063EF7F
:101EC0000FF066EF0FF0438E67EF0FF0439ED89050
:101ED0004F30446E4DAE6FEF0FF071EF0FF072EFB9
:101EE0000FF0448E41C041F042C042F043C043F085
:101EF00044C044F012001250800B1B6E125012248A
:101F0000216E11AE86EF0FF088EF0FF089EF0FF022
:101F100021802150D8B48FEF0FF091EF0FF0A4EF94
:101F20000FF02128D8A497EF0FF099EF0FF0A1EF51
:101F30000FF0000E0F6E000E106E000E116E000EF0
:101F4000126E118EACEF0FF0000E0F6E000E106EC1
:101F5000000E116E000E126E1650800B1B1A1650DA
:101F60001624206E15AEB7EF0FF0B9EF0FF0BAEFF1
:101F70000FF020802050D8B4C0EF0FF0C2EF0FF068
:101F8000D5EF0FF02028D8A4C8EF0FF0CAEF0FF05C
:101F9000D2EF0FF0000E136E000E146E000E156ED1
:101FA000000E166E158EDDEF0FF0000E136E000E94
:101FB000146E000E156E000E166E2050D8B4E3EFAE
:101FC0000FF0E5EF0FF0EDEF0FF02150D8A4EBEF9D
:101FD0000FF0EDEF0FF0F7EF0FF0000E0F6E000EA9
:101FE000106E000E116E000E126E8FEF11F0155074
:101FF0000F02F3CF26F0F4CF27F026501C6E1D6A97
:102000001E6A1F6A2750226E236A246A256A1450AA
:102010001002F3CF26F0F4CF27F026501C26000E36
:102020001D221E221F2227502226000E2322242298
:10203000252213501102F3CF26F0F4CF27F02650BB
:102040001C26000E1D221E221F2227502226000EB3
:102050002322242225221EC01FF01DC01EF01CC0FA
:102060001DF01C6A13501002F3CF26F0F4CF27F0B6
:1020700026501C2627501D22000E1E22000E1F2255
:1020800014500F02F3CF26F0F4CF27F026501C2671
:1020900027501D22000E1E22000E1F221EC01FF000
:1020A0001DC01EF01CC01DF01C6A13500F02F3CFA0
:1020B00026F0F4CF27F026501C2627501D22000EB4
:1020C0001E22000E1F2215501002F3CF26F0F4CF6F
:1020D00027F02650222627502322000E2422000E0D
:1020E000252214501102F3CF26F0F4CF27F026500A
:1020F000222627502322000E2422000E25221550CE
:102100001102F3CF26F0F4CF27F02650176E275098
:10211000186E196A1A6A19C01AF018C019F017C097
:1021200018F0176A1750222618502322195024221B
:102130001A5025221CC017F01DC018F01EC019F03F
:102140001FC01AF0190EAAEF10F0D8901A321932E7
:1021500018321732E82EA5EF10F01750222618502B
:102160002322195024221A5025221EC01FF01DC000
:102170001EF01CC01DF01C6A205021C017F0186A08
:102180001726000E1822820E1724266EFF0E182026
:10219000276EE0EF10F0D89022362336243625360D
:1021A0001FAED5EF10F0D7EF10F0D8EF10F022806F
:1021B000D8901C361D361E361F362606D8A0270698
:1021C00024AEE5EF10F0E7EF10F0CBEF10F0000ECB
:1021D000206E1FAEEEEF10F0F0EF10F014EF11F0E4
:1021E000FF0E1C14176EFF0E1D14186EFF0E1E142A
:1021F000196E7F0E1F141A6E1750181019101A102E
:10220000D8B405EF11F007EF11F00BEF11F0010E4C
:10221000206E14EF11F022A010EF11F012EF11F068
:1022200014EF11F007EF11F02050D8B41AEF11F0AD
:102230001CEF11F040EF11F0010E2226000E2322B8
:102240002422252225A027EF11F029EF11F040EFDD
:1022500011F022C017F023C018F024C019F025C0D7
:102260001AF01A341A3219321832173217C022F003
:1022700018C023F019C024F01AC025F0264A272AD6
:1022800027BE4BEF11F0275008E12628D8A04BEFCE
:1022900011F04DEF11F057EF11F0000E226E000E0D
:1022A000236E800E246E7F0E256E85EF11F027BE03
:1022B00064EF11F0275006E12604D8B062EF11F068
:1022C00064EF11F070EF11F0000E226E000E236E1D
:1022D000000E246E000E256E000E1B6E85EF11F0B1
:1022E00026C021F0FF0E2216FF0E23167F0E2416A5
:1022F000000E251621A07FEF11F081EF11F082EF83
:1023000011F0248ED8902130256E1B50251222C04A
:102310000FF023C010F024C011F025C012F01200FD
:102320002B50800B386E2B502B243F6E2AAE9BEF28
:1023300011F09DEF11F09EEF11F03F803F50D8B4A7
:10234000A4EF11F0A6EF11F0BBEF11F03F28D8A4D5
:10235000ACEF11F0AEEF11F0B6EF11F0000E286EF9
:10236000000E296E000E2A6E000E2B6E2A8E000EB5
:102370002B6EC3EF11F0000E286E000E296E000EBA
:102380002A6E000E2B6E2F50800B381A2F502F24E0
:10239000406E2EAECEEF11F0D0EF11F0D1EF11F074
:1023A00040804050D8B4D7EF11F0D9EF11F0EEEFE4
:1023B00011F04028D8A4DFEF11F0E1EF11F0E9EFC0
:1023C00011F0000E2C6E000E2D6E000E2E6E000E03
:1023D0002F6E2E8E000E2F6EF6EF11F0000E2C6E6B
:1023E000000E2D6E000E2E6E000E2F6E2C502D1036
:1023F0002E102F10D8A4FFEF11F001EF12F019EFFB
:1024000012F0000E286E000E296E000E2A6E000ECD
:102410002B6E800E2A127F0E2B1238502B1228C0E2
:1024200028F029C029F02AC02AF02BC02BF05CEF3D
:1024300013F03F50D8A41FEF12F021EF12F02BEF52
:1024400012F0000E286E000E296E000E2A6E000E8D
:102450002B6E5CEF13F040503FC030F0316A305EBD
:10246000000E315A7F0E3024396E000E31203A6E44
:1024700028C034F029C035F02AC036F02BC037F020
:10248000000E286E000E296E000E2A6E000E2B6EB6
:10249000000E3B6E000E3C6E000E3D6E000E3E6E5A
:1024A000000E406E8CEF12F04050D8B45AEF12F08C
:1024B0005CEF12F073EF12F0D890343635363636C2
:1024C0003736D890283629362A362B363EAE6BEF73
:1024D00012F06DEF12F06EEF12F02880D8903B36BC
:1024E0003C363D363E362C50345C2D5035582E50FF
:1024F00036582F503758D8A080EF12F082EF12F0E4
:102500008BEF12F03E8C2C50345E2D50355A2E50ED
:10251000365A2F50375A402A190E406492EF12F063
:1025200094EF12F054EF12F034503510361037108B
:10253000D8B49DEF12F09FEF12F0B7EF12F03B808E
:10254000B7EF12F0D890283629362A362B363EAE11
:10255000ACEF12F0AEEF12F0AFEF12F02880D8908F
:102560003B363C363D363E363906D8A03A062AAED2
:10257000BCEF12F0BEEF12F0A2EF12F0000E406EB0
:102580003EAEC5EF12F0C7EF12F0EBEF12F0FF0E08
:102590003B14306EFF0E3C14316EFF0E3D14326E54
:1025A0007F0E3E14336E3050311032103310D8B4D9
:1025B000DCEF12F0DEEF12F0E2EF12F0010E406EEF
:1025C000EBEF12F028A0E7EF12F0E9EF12F0EBEFDB
:1025D00012F0DEEF12F04050D8B4F1EF12F0F3EF4A
:1025E00012F017EF13F0010E2826000E29222A22DE
:1025F0002B222BA0FEEF12F000EF13F017EF13F0D9
:1026000028C030F029C031F02AC032F02BC033F09E
:102610003334333232323132303230C028F031C0CC
:1026200029F032C02AF033C02BF0394A3A2A3ABE98
:1026300022EF13F03A5008E13928D8A022EF13F026
:1026400024EF13F02FEF13F0000E3A6E3968000EEE
:10265000286E000E296E000E2A6E000E2B6E3ABEFA
:102660003CEF13F03A5006E13904D8B03AEF13F0DA
:102670003CEF13F04AEF13F0000E3A6E000E396E85
:10268000000E286E000E296E000E2A6E000E2B6EB4
:10269000000E386E39C03FF03FA051EF13F053EFFA
:1026A00013F056EF13F02A8E57EF13F02A9ED890AE
:1026B0003F302B6E0DEF12F01200010E926E939CC4
:1026C000F00EC116CF0EC116000EC26EC050C70B61
:1026D0001809C06EC050F80B0509C06EC08EC280CC
:1026E000720ED36E000E956EACEC25F0000E0B6EE4
:1026F000590E0C6E080E0D6E010E1DEC25F0000E2D
:102700000B6E4B0E0C6E080E0D6E020E1DEC25F0BE
:102710001A0E0001DA6F5E0ED96F6E0EE82EFED72C
:10272000D92FFCD7DA2FFAD700F01A0E0001DA6F92
:102730005E0ED96F6E0EE82EFED7D92FFCD7DA2F9A
:10274000FAD700F01A0E0001DA6F5E0ED96F6E0E26
:10275000E82EFED7D92FFCD7DA2FFAD700F0C5EF35
:1027600013F0000E0B6E150E0C6E080E0D6E010EA2
:102770001DEC25F0000E0B6E010E0C6E080E0D6E9A
:10278000020E1DEC25F08FEC17F00001F4BFD1EF25
:1027900013F0F45108E1F305D8A0D1EF13F0D3EF13
:1027A00013F0B1EF13F0D7EC25F0C282D2EF14F0A2
:1027B000C282C2B2DEEF13F0E0EF13F0D9EF13F0F4
:1027C000C4CFF5F00001F66BF551F66FF56BC35011
:1027D000F525F56F000EF621F66F000E136E000E54
:1027E000146EA00E156E400E166EF5C001F0F6C008
:1027F00002F0000E02BEFF0E036E046E010E28EC06
:102800001CF001C00FF002C010F003C011F004C0B2
:1028100012F07BEC0FF00FC028F010C029F011C0AF
:102820002AF012C02BF0000E2C6E000E2D6E800EC2
:102830002E6E440E2F6E90EC11F028C008F129C0C6
:1028400009F12AC00AF12BC00BF1000E0B6E3B0EF2
:102850000C6E080E0D6E020E1DEC25F0DB0E000155
:10286000C76F000EC86F660EC96F080ECA6F08C129
:10287000CBF009C1CCF00AC1CDF00BC1CEF0F5EC24
:1028800023F0000E0B6EDB0E0C6E000E0D6E010EB3
:102890001DEC25F08FEC17F00001F305F411D8B40E
:1028A00054EF14F056EF14F0D8EF13F0D7EC25F0F6
:1028B000C7EF14F0C282C2B260EF14F062EF14F0FE
:1028C0005BEF14F0C350016E026A036A046A000EE3
:1028D00028EC1CF001C00CF102C00DF103C00EF198
:1028E00004C00FF1000E456E000E466E400E476E9E
:1028F000400E486E000E2C6E000E2D6E000E2E6ED9
:10290000400E2F6E0CC128F00DC129F00EC12AF027
:102910000FC12BF090EC11F028C041F029C042F01B
:102920002AC043F02BC044F01BEC0DF041C051F025
:1029300042C052F043C053F044C054F040EC1FF08A
:1029400051C014F152C015F1000E0B6E1A0E0C6E30
:10295000080E0D6E020E1DEC25F0DB0E0001C76F98
:10296000000EC86F780EC96F080ECA6F14C1CBF085
:1029700015C1CCF0F5EC23F0000E0B6EDB0E0C6EE7
:10298000000E0D6E010E1DEC25F08FEC17F0020EFF
:102990000001F319F411D8B4D0EF14F0D2EF14F011
:1029A0005AEF14F0C2B2D7EF14F0D9EF14F04CEF95
:1029B00014F0C5EF13F000EF00F01EC036F01FC09A
:1029C00037F020C038F021C039F022C03AF023C0DF
:1029D0003BF024C03CF025C03DF03DBEF2EF14F0CA
:1029E000F5EF14F0010EF6EF14F0000E346E356AB8
:1029F00034503510D8B4FFEF14F001EF15F011EF9B
:102A000015F03D1E3C1E3B1E3A1E391E381E371E59
:102A1000366C000E3722382239223A223B223C22E1
:102A20003D220001F0BF17EF15F019EF15F01AEF76
:102A300015F0F193F0BF27EF15F0F05106E1EF0527
:102A4000D8B025EF15F027EF15F02DEF15F0000E9B
:102A5000316E010E306E31EF15F0EFC030F0F0C086
:102A600031F012C132F013C133F034503510D8A414
:102A70003CEF15F03EEF15F045EF15F0F1A543EFF3
:102A800015F045EF15F048EF15F03206D8A03306E3
:102A9000000E3F6E4F0E3E6E000E0101696FCDEFCE
:102AA00015F03E06D8A03F061A0E3E24D96E010E40
:102AB0003F20DA6E36C001F037C002F038C003F0B4
:102AC00039C004F03AC005F03BC006F03CC007F046
:102AD0003DC008F00A0E096E000E0A6E000E0B6E65
:102AE000000E0C6E000E0D6E000E0E6E000E0F6EC0
:102AF000000E106E8EEC1EF001C026F002C027F012
:102B000003C028F004C029F005C02AF006C02BF04D
:102B100007C02CF008C02DF026C013F028C014F018
:102B2000FDEC24F01350300FDF6E3006D8A03106D4
:102B30003206D8A0330636C001F037C002F038C0E4
:102B400003F039C004F03AC005F03BC006F03CC0C9
:102B500007F03DC008F00A0E096E000E0A6E000E66
:102B60000B6E000E0C6E000E0D6E000E0E6E000E43
:102B70000F6E000E106ECAEC1DF001C036F002C0E0
:102B800037F003C038F004C039F005C03AF006C091
:102B90003BF007C03CF008C03DF03FBED8EF15F059
:102BA0003F5008E13E04D8A0D8EF15F0DAEF15F059
:102BB0000BEF16F036503710381039103A103B1022
:102BC0003C103D10D8A4E7EF15F0E9EF15F051EFF8
:102BD00015F031BEF6EF15F0315006E13004D8B0F3
:102BE000F4EF15F0F6EF15F051EF15F033BE01EFED
:102BF00016F0335008E13204D8A001EF16F003EFCD
:102C000016F00BEF16F00001F1B309EF16F00BEF21
:102C100016F051EF15F034503510D8A412EF16F01D
:102C200014EF16F01CEF16F00001F1A51AEF16F0E4
:102C30001CEF16F03AEF16F03E06D8A03F063450CF
:102C40003510D8A426EF16F028EF16F02EEF16F068
:102C5000000E2F6E2B0E2E6E32EF16F0000E2F6E22
:102C60002D0E2E6E1A0E3E24D96E010E3F20DA6E06
:102C70002EC0DFFF1CC011F01DC012F01A0E3E2442
:102C8000136E010E3F20146E32C015F033C016F0E3
:102C900094EC21F011C01CF012C01DF01200939AA8
:102CA0009468818A82A057EF16F059EF16F09EEFD4
:102CB00016F00001F751F811D8A461EF16F063EF98
:102CC00016F09EEF16F0000EF86F010EF76F030E70
:102CD0000A6E8A0E096E560EE82EFED7092EFCD714
:102CE0000A2EFAD782B077EF16F079EF16F08AEF56
:102CF00017F00001F705F811D8A481EF16F083EF63
:102D000016F08AEF17F0000E0101176F000E166F14
:102D1000000E0001F86F000EF76FD7EC25F0000EE3
:102D20000001F46F000EF36F000EFA6F000EF96FE2
:102D3000D7EC25F0819A82908AEF17F082A2A3EF58
:102D400016F0A5EF16F0DFEF16F00001F751F811BD
:102D5000D8A4ADEF16F0AFEF16F0DFEF16F0000ECF
:102D6000F86F010EF76F030E0A6E8A0E096E560E8B
:102D7000E82EFED7092EFCD70A2EFAD782B2C3EF6F
:102D800016F0C5EF16F08AEF17F00001F705F811FD
:102D9000D8A4CDEF16F0CFEF16F08AEF17F0000EA3
:102DA0000101176F000E166F819A000E0001F46F7B
:102DB000000EF36FF94BFA2B82928AEF17F082A480
:102DC000E4EF16F0E6EF16F041EF17F00001F751CF
:102DD000F811D8A4EEEF16F0F0EF16F041EF17F06F
:102DE000000EF86F010EF76F030E0A6E8A0E096E61
:102DF000560EE82EFED7092EFCD70A2EFAD782B43B
:102E000004EF17F006EF17F08AEF17F00001F7054F
:102E1000F811D8A40EEF17F010EF17F08AEF17F0A3
:102E2000000E0101176F000E166F000E0001F86F03
:102E3000000EF76F819AD7EC25F00001FB05FC111D
:102E4000D8A425EF17F027EF17F033EF17F0000E97
:102E5000FC6F020EFB6F000EFA6F000EF96FD7ECDD
:102E600025F037EF17F0000EFC6F010EFB6F829418
:102E7000000E0001FA6F000EF96FD7EC25F08AEF13
:102E800017F082A846EF17F048EF17F086EF17F01B
:102E90000001F705F811D8A450EF17F052EF17F022
:102EA00086EF17F0000EF86F010EF76F030E0A6E33
:102EB0008A0E096E560EE82EFED7092EFCD70A2E72
:102EC000FAD782B266EF17F068EF17F08AEF17F0C3
:102ED0000001F705F811D8A470EF17F072EF17F0A2
:102EE0008AEF17F0000E0101176F000E166F000E2B
:102EF0000001F86F000EF76F819AD60E00D000D057
:102F0000E82EFCD700D082988AEF17F0819A938A36
:102F1000000E946E819A938A000E946E120093981C
:102F20009468818882A097EF17F099EF17F0DEEF91
:102F300017F00001F751F811D8A4A1EF17F0A3EF93
:102F400017F0DEEF17F0000EF86F010EF76F030EAB
:102F5000026E8A0E016E560EE82EFED7012EFCD7A9
:102F6000022EFAD782B0B7EF17F0B9EF17F0C0EF23
:102F700018F00001F705F811D8A4C1EF17F0C3EF5E
:102F800017F0C0EF18F0000E0101176F000E166F5A
:102F9000000E0001F86F000EF76FF94BFA2B819CC1
:102FA000000EF46F010EF36F8190D60E00D000D0AA
:102FB000E82EFCD700D08290C0EF18F082A2E3EF99
:102FC00017F0E5EF17F02AEF18F00001F751F811AC
:102FD000D8A4EDEF17F0EFEF17F02AEF18F0000E7E
:102FE000F86F010EF76F030E026E8A0E016E560E19
:102FF000E82EFED7012EFCD7022EFAD782B203EFBD
:1030000018F005EF18F0C0EF18F00001F705F811FF
:10301000D8A40DEF18F00FEF18F0C0EF18F0000E65
:103020000101176F000E166F000E0001F86F000E01
:10303000F76FF94BFA2B818C000EF46F020EF36FD1
:103040008180D60E00D000D0E82EFCD700D082922E
:10305000C0EF18F082A42FEF18F031EF18F075EFE1
:1030600018F00001F751F811D8A439EF18F03BEF30
:1030700018F075EF18F0000EF86F010EF76F030EE1
:10308000026E8A0E016E560EE82EFED7012EFCD778
:10309000022EFAD782B44FEF18F051EF18F0C0EFBC
:1030A00018F00001F705F811D8A459EF18F05BEFFC
:1030B00018F0C0EF18F0000E0101176F000E166F28
:1030C000000E0001F86F000EF76FF94BFA2B819894
:1030D000000EF46F030EF36FD60E00D000D0E82E72
:1030E000FCD700D08294C0EF18F082A87AEF18F0D5
:1030F0007CEF18F0BCEF18F00001F705F811D8A428
:1031000084EF18F086EF18F0BCEF18F0000EF86F9F
:10311000010EF76F030E026E8A0E016E560EE82E38
:10312000FED7012EFCD7022EFAD782B29AEF18F002
:103130009CEF18F0C0EF18F00001F705F811D8A4C3
:10314000A4EF18F0A6EF18F0C0EF18F0000E010180
:10315000176F000E166F000E0001F86F000EF76F6C
:10316000F94BFA2B8198D60E00D000D0E82EFCD770
:1031700000D08298C0EF18F081989388000E946E6A
:1031800081989388000E946E000E0001F86F000E77
:10319000F76F120093949468818482A0D2EF18F0A4
:1031A000D4EF18F012EF19F00001F751F811D8A47C
:1031B000DCEF18F0DEEF18F012EF19F0000EF86FE8
:1031C000010EF76F030E0A6E8A0E096E560EE82E78
:1031D000FED7092EFCD70A2EFAD782B0F2EF18F0EC
:1031E000F4EF18F0F1EF19F00001F705F811D8A489
:1031F000FCEF18F0FEEF18F0F1EF19F0000E0101EE
:10320000176F000E166F000E0001F86F000EF76FBB
:10321000F94BFA2B8192000EF46F040EF36F82903B
:10322000F1EF19F082A217EF19F019EF19F057EF2B
:1032300019F00001F751F811D8A421EF19F023EF8C
:1032400019F057EF19F0000EF86F010EF76F030E2B
:103250000A6E8A0E096E560EE82EFED7092EFCD78E
:103260000A2EFAD782B237EF19F039EF19F0F1EFE1
:1032700019F00001F705F811D8A441EF19F043EF58
:1032800019F0F1EF19F0000E0101176F000E166F23
:10329000000E0001F86F000EF76FF94BFA2B8192C8
:1032A000000EF46F050EF36F8292F1EF19F082A415
:1032B0005CEF19F05EEF19F09CEF19F00001F75187
:1032C000F811D8A466EF19F068EF19F09CEF19F027
:1032D000000EF86F010EF76F030E0A6E8A0E096E6C
:1032E000560EE82EFED7092EFCD70A2EFAD782B446
:1032F0007CEF19F07EEF19F0F1EF19F00001F705FE
:10330000F811D8A486EF19F088EF19F0F1EF19F051
:10331000000E0101176F000E166F0001F94BFA2B1A
:10332000000EF86F000EF76F8192000EF46F060E1C
:10333000F36F8294F1EF19F082A8A1EF19F0A3EFD7
:1033400019F0E8EF19F00001F751F811D8A4ABEF2C
:1033500019F0ADEF19F0E8EF19F0000EF86F010E5B
:10336000F76FF94BFA2B030E0A6E8A0E096E560E92
:10337000E82EFED7092EFCD70A2EFAD782B2C3EF69
:1033800019F0C5EF19F0F1EF19F00001F705F81188
:10339000D8A4CDEF19F0CFEF19F0F1EF19F0000E2E
:1033A0000101176F000E166F000E0001FA6F010E7B
:1033B000F96FD7EC25F0000E0001F86F000EF76FE3
:1033C0008192030EF46FE80EF36F8298F1EF19F01B
:1033D00081949384000E946E000E0001F86F000E2D
:1033E000F76F81949384000E946E12009392946808
:1033F000818282A0FEEF19F000EF1AF03DEF1AF083
:103400000001F751F811D8A408EF1AF00AEF1AF0EA
:103410003DEF1AF0000EF86F010EF76F000E01017C
:10342000176F000E166F030E026E8A0E016E560E97
:10343000E82EFED7012EFCD7022EFAD782B023EF5A
:103440001AF025EF1AF01AEF1BF00001F705F8113A
:10345000D8A42DEF1AF02FEF1AF01AEF1BF0000E80
:10346000F86F000EF76F8192000EF46F070EF36F86
:10347000F94BFA2B82901AEF1BF082A242EF1AF05E
:1034800044EF1AF082EF1AF00001F751F811D8A4B6
:103490004CEF1AF04EEF1AF082EF1AF0000EF86FB0
:1034A000010EF76F030E026E8A0E016E560EE82EA5
:1034B000FED7012EFCD7022EFAD782B262EF1AF0A5
:1034C00064EF1AF01AEF1BF00001F705F811D8A409
:1034D0006CEF1AF06EEF1AF01AEF1BF0000EF86F97
:1034E000000EF76F000E0101176F000E166F81922C
:1034F000000E0001F46F080EF36FF94BFA2B829265
:103500001AEF1BF082A487EF1AF089EF1AF0C7EFC9
:103510001AF00001F751F811D8A491EF1AF093EFC7
:103520001AF0C7EF1AF0000EF86F010EF76F030ED6
:10353000026E8A0E016E560EE82EFED7012EFCD7C3
:10354000022EFAD782B4A7EF1AF0A9EF1AF01AEFF9
:103550001BF00001F705F811D8A4B1EF1AF0B3EF92
:103560001AF01AEF1BF0000EF86F000EF76F000E46
:103570000101176F000E166F8192000E0001F46FAB
:10358000090EF36FF94BFA2B82941AEF1BF082A805
:10359000CCEF1AF0CEEF1AF011EF1BF00001F7514B
:1035A000F811D8A4D6EF1AF0D8EF1AF011EF1BF0EB
:1035B000000EF86F010EF76F030E026E8A0E016E99
:1035C000560EE82EFED7012EFCD7022EFAD782B275
:1035D000ECEF1AF0EEEF1AF01AEF1BF00001F7050E
:1035E000F811D8A4F6EF1AF0F8EF1AF01AEF1BF062
:1035F000000E0101176F000E166F000E0001F86F2C
:10360000000EF76F8192000EF46F010EF36FF94B0D
:10361000FA2B000E0101176F010E166F82981AEF38
:103620001BF081929382000E946E000E0001F86FE1
:10363000000EF76F81929382000E946E120000C10B
:1036400051F001C152F002C153F003C154F041C026
:1036500051F042C052F043C053F044C054F0810EC8
:10366000456EFF0E466E51C047F052C048F053C041
:1036700049F054C04AF0180E43EF1BF0D8904A327C
:10368000493248324732E82E3EEF1BF0475045247E
:103690004F6E000E4620506E50BE58EF1BF050503B
:1036A00009E1170E4F5CD8A058EF1BF05AEF1BF042
:1036B00064EF1BF041C041F042C042F043C043F010
:1036C00044C044F027EF1CF050BE69EF1BF06BEFD5
:1036D0001BF0DBEF1BF04FC045F0FF0E466EFF0EF8
:1036E000476E7F0E486E000E496E45667AEF1BF0FE
:1036F00082EF1BF049344932483247324632452E78
:1037000075EF1BF046C04BF047C04CF048C04DF081
:1037100049C04EF04B505114456E4C505214466EF9
:103720004D505314476E4E505414486E4550461039
:1037300047104810D8A49FEF1BF0A1EF1BF0A3EF98
:103740001BF05AEF1BF051C045F052C046F053C079
:1037500047F054C048F0200EB3EF1BF0D890483229
:10376000473246324532E82EAEEF1BF04550461048
:1037700047104810D8B4BFEF1BF0C1EF1BF0C9EFE2
:103780001BF04B5051264C5052224D5053224E505C
:1037900054224B1C456E4C1C466E4D1C476E4E1CF5
:1037A000486E4550511646505216475053164850D1
:1037B00054161FEF1CF051C045F052C046F053C0E4
:1037C00047F054C048F0200EEBEF1BF0D890483281
:1037D000473246324532E82EE6EF1BF045504610A0
:1037E00047104810D8A4F7EF1BF0F9EF1BF003EFD8
:1037F0001CF0000E516E000E526E000E536E000E45
:10380000546E1FEF1CF0D8905134456E5234466E02
:103810005334476E5434486E455046104710481094
:10382000D8B415EF1CF017EF1CF01FEF1CF0000EC2
:10383000516E000E526E800E536EBF0E546E51C00C
:1038400041F052C042F053C043F054C044F0120063
:10385000096E0950D8B42FEF1CF031EF1CF053EF74
:103860001CF004BE38EF1CF036EF1CF053EF1CF0D8
:1038700001C005F002C006F003C007F004C008F064
:10388000051E061E071E081E052A000E0622072218
:10389000082205C00BF006C00CF007C00DF008C0F0
:1038A0000EF05BEF1CF001C00BF002C00CF003C087
:1038B0000DF004C00EF00150021003100410D8A443
:1038C00064EF1CF066EF1CF070EF1CF0000E016E50
:1038D000000E026E000E036E000E046E01EF1DF06E
:1038E000960E0A6E7AEF1CF00A2AD8900E320D322C
:1038F0000C320B32000E0B14056E000E0C14066E0B
:10390000000E0D14076EFE0E0E14086E0550061004
:1039100007100810D8A48FEF1CF091EF1CF074EF83
:103920001CF09FEF1CF00A2A010E0B26000E0C2241
:103930000D220E22D8900E320D320C320B32000EB8
:103940000B14056E000E0C14066E000E0D14076E9F
:10395000FF0E0E14086E0550061007100810D8A4AC
:10396000B4EF1CF0B6EF1CF093EF1CF0BEEF1CF0B0
:103970000A06D8900B360C360D360E360DBEC3EF48
:103980001CF0C5EF1CF0CDEF1CF0020E0A60CBEF6F
:103990001CF0CDEF1CF0B8EF1CF00AB0D2EF1CF019
:1039A000D4EF1CF0D5EF1CF00D9ED8900A320AC05F
:1039B00005F0066A076A086A05C008F0076A066A21
:1039C000056A05500B1206500C1207500D120850D4
:1039D0000E120950D8B4EFEF1CF0F1EF1CF0F9EF24
:1039E0001CF004BEF8EF1CF0F6EF1CF0F9EF1CF031
:1039F0000E8E0BC001F00CC002F00DC003F00EC023
:103A000004F01200000E166E000E156E000E0F6E02
:103A1000000E0E6E0EEF1DF0084A092A010E146EFC
:103A200008C0F6FF09C0F7FF0800F550200AD8B417
:103A30001CEF1DF01EEF1DF03BEF1DF0F70E0A6EA0
:103A4000FF0E0B6E08C0F6FF09C0F7FF0800F55027
:103A50000C6E0D6A0A500C260B500D220D5009E118
:103A6000050E0C5CD8A037EF1DF039EF1DF03BEFD1
:103A70001DF0000E146E14C010F0116A10501110D9
:103A8000D8A445EF1DF047EF1DF00CEF1DF051EFEE
:103A90001DF0000E0F6E010E0E6E084A092A86EF09
:103AA0001DF008C0F6FF09C0F7FF0800F5500A6EC8
:103AB0000B6A0B50000AD8B460EF1DF086EF1DF0C2
:103AC0000A502B0AD8B44DEF1DF0060AD8B449EFBE
:103AD0001DF086EF1DF015C001F016C002F0000EBB
:103AE000046E0A0E036EC4EC25F008C0F6FF09C090
:103AF000F7FF0800F550015E000E025A300E012457
:103B0000156E000E0220166E4DEF1DF0D00E0A6EDF
:103B1000FF0E0B6E08C0F6FF09C0F7FF0800F55056
:103B20000C6E0D6A0A500C260B500D220D500AE146
:103B30000A0E0C5CD8A09FEF1DF0A2EF1DF0010E45
:103B4000A3EF1DF0000E126E136A12501310D8A4CA
:103B5000ACEF1DF0AEEF1DF06BEF1DF00E500F102F
:103B6000D8A4B5EF1DF0B7EF1DF0C5EF1DF015C0DF
:103B70000AF016C00BF00A1E0B1E0A4A0B2A0AC0D6
:103B800008F00BC009F0C9EF1DF015C008F016C011
:103B900009F01200000E126E10BED3EF1DF0D1EF2F
:103BA0001DF0E5EF1DF0101E0F1E0E1E0D1E0C1E4B
:103BB0000B1E0A1E096C000E0A220B220C220D227B
:103BC0000E220F221022010E126E08BEECEF1DF025
:103BD000EAEF1DF0FEEF1DF0081E071E061E051E73
:103BE000041E031E021E016C000E02220322042288
:103BF0000522062207220822010E121A20EE13F0D7
:103C0000070EDE6AE806FDE209500A100B100C10E0
:103C10000D100E100F101010D8B411EF1EF013EF8E
:103C20001EF065EF1EF0010E116E21EF1EF0D89010
:103C300009360A360B360C360D360E360F36103670
:103C4000112A10AE26EF1EF028EF1EF017EF1EF01F
:103C5000D8901336143615361636173618361936E8
:103C60001A360950015C0A5002580B5003580C5088
:103C700004580D5005580E5006580F500758105054
:103C80000858D8A046EF1EF048EF1EF059EF1EF07E
:103C90000950015E0A50025A0B50035A0C50045A44
:103CA0000D50055A0E50065A0F50075A1050085A18
:103CB0001380D89010320F320E320D320C320B328C
:103CC0000A320932112E28EF1EF01250D8B46BEFD1
:103CD0001EF06DEF1EF07DEF1EF01A1E191E181E4D
:103CE000171E161E151E141E136C000E142215220C
:103CF00016221722182219221A2213C001F014C00A
:103D000002F015C003F016C004F017C005F018C08B
:103D100006F019C007F01AC008F01200000E126E6B
:103D200008BE97EF1EF095EF1EF0A9EF1EF0081EDB
:103D3000071E061E051E041E031E021E016C000E39
:103D40000222032204220522062207220822010E53
:103D5000126E10BEB0EF1EF0AEEF1EF0C0EF1EF000
:103D6000101E0F1E0E1E0D1E0C1E0B1E0A1E096CB1
:103D7000000E0A220B220C220D220E220F221022EC
:103D800009500A100B100C100D100E100F1010100F
:103D9000D8B4CDEF1EF0CFEF1EF017EF1FF0010EDD
:103DA000116EDDEF1EF0D89009360A360B360C3650
:103DB0000D360E360F361036112A10AEE2EF1EF019
:103DC000E4EF1EF0D3EF1EF00950015C0A500258D8
:103DD0000B5003580C5004580D5005580E500658FF
:103DE0000F50075810500858D8A0F9EF1EF0FBEFFD
:103DF0001EF00BEF1FF00950015E0A50025A0B50E3
:103E0000035A0C50045A0D50055A0E50065A0F50C2
:103E1000075A1050085AD89010320F320E320D3215
:103E20000C320B320A320932112EE4EF1EF012501E
:103E3000D8B41DEF1FF01FEF1FF02FEF1FF0081E6B
:103E4000071E061E051E041E031E021E016C000E28
:103E5000022203220422052206220722082201C090
:103E600001F002C002F003C003F004C004F005C07A
:103E700005F006C006F007C007F008C008F0120001
:103E8000533454345A6E5A50D8A449EF1FF04BEFB4
:103E90001FF055EF1FF0000E516E000E526E000E17
:103EA000536E000E546EC2EF1FF051C055F052C059
:103EB00056F053C057F054C058F0200E65EF1FF075
:103EC000D8905832573256325532E82E60EF1FF0F4
:103ED0005550596E538EFF0E5116FF0E5216FF0E9F
:103EE0005316000E5416960E5A5E5ABE7CEF1FF003
:103EF0007AEF1FF092EF1FF05A50800A970FD8B058
:103F000084EF1FF086EF1FF088EF1FF04BEF1FF0DC
:103F1000D89054325332523251325A3E88EF1FF009
:103F2000AAEF1FF01F0E5A6498EF1FF09AEF1FF0D0
:103F3000A2EF1FF04BEF1FF0D89051365236533698
:103F400054365A065A50D8A4A8EF1FF0AAEF1FF013
:103F50009CEF1FF05950D8B4B0EF1FF0B2EF1FF034
:103F6000BAEF1FF0541E531E521E516C000E522207
:103F70005322542251C051F052C052F053C053F05A
:103F800054C054F01200000E2814306E000E291494
:103F9000316E800E2A14326E7F0E2B14336E305029
:103FA000311032103310D8A4D8EF1FF0DAEF1FF021
:103FB000E2EF1FF0000E286E000E296E000E2A6E32
:103FC000000E2B6E000E2C14306E000E2D14316E70
:103FD000800E2E14326E7F0E2F14336E305031103F
:103FE00032103310D8A4F7EF1FF0F9EF1FF001EFF4
:103FF00020F0000E2C6E000E2D6E000E2E6E000EA8
:104000002F6E2BAE06EF20F008EF20F011EF20F01E
:10401000286C291ED8B0292A2A1ED8B02A2A800E38
:104020002B562FAE16EF20F018EF20F021EF20F0E6
:104030002C6C2D1ED8B02D2A2E1ED8B02E2A800E04
:104040002F56000E281A000E291A000E2A1A800E6A
:104050002B1A000E2C1A000E2D1A000E2E1A800E8E
:104060002F1A2C50285C2D5029582E502A582F508A
:104070002B58D8B03EEF20F040EF20F043EF20F077
:10408000D89044EF20F0D880120004C10BF005C195
:104090000CF006C10DF007C10EF001C00BF002C01C
:1040A0000CF003C00DF004C00EF00BC005F00CC006
:1040B00006F00DC007F00EC008F0180E65EF20F0F6
:1040C000D8900832073206320532E82E60EF20F031
:1040D0000550096E0A6A09500A10D8A472EF20F040
:1040E00074EF20F094EF20F0D8900B34056E0C3470
:1040F000066E0D34076E0E34086E0550061007105C
:104100000810D8A486EF20F088EF20F08EEF20F082
:10411000000E026E020E016EC3EF20F0000E026E62
:10412000030E016EC3EF20F009280A10D8A49BEFFC
:1041300020F09DEF20F0BFEF20F00BC005F00CC089
:1041400006F00DC007F00EC008F0090ED890053635
:10415000063607360836E82EA6EF20F00550061082
:1041600007100810D8B4B7EF20F0BAEF20F0010E16
:10417000BBEF20F0000E016E026AC3EF20F0000ECC
:10418000026E040E016E120001C008F002C009F0B8
:1041900003C00AF004C00BF00506D8A006060528E7
:1041A00006E10628D8A4D7EF20F0D9EF20F0E6EFFB
:1041B00020F0000E026E000E016E2EEF21F0084A74
:1041C000092A0A4A0B2A0506D8A0060608C0D9FF04
:1041D00009C0DAFFDF50D8B4F0EF20F0F2EF20F0A2
:1041E0001DEF21F00AC0F6FF0BC0F7FF0800F550E5
:1041F0000009D8B4FEEF20F000EF21F01DEF21F010
:1042000005500610D8B407EF21F009EF21F01DEF9B
:1042100021F008C0D9FF09C0DAFFDF50076E0AC0DD
:10422000F6FF0BC0F7FF0800F5500718D8B41BEFD6
:1042300021F01DEF21F0DFEF20F008C0D9FF09C009
:10424000DAFFDF50076E0AC0F6FF0BC0F7FF080069
:10425000F550075C016E026AD8A0020612000350F6
:104260000410D8B436EF21F038EF21F041EF21F0FF
:1042700003500410D8A43FEF21F041EF21F046EFA6
:1042800021F00150DEEC25F093EF21F020EE04F058
:104290000350D9260450DA22DE50DE10D8B453EF92
:1042A00021F055EF21F070EF21F020EE04F00350E3
:1042B000D9260450DA2210EE02F00350E126045011
:1042C000E222DE50E65CE650800A096EDE50800A8B
:1042D0000958D8B06EEF21F070EF21F093EF21F084
:1042E00020EE02F00350D9260450DA22DECF05F08A
:1042F000DDCF06F003C0D9FF04C0DAFFDECF07F040
:10430000DDCF08F005500724D96E06500820DA6E7C
:1043100001C0DFFF20EE02F00350D9260450DA225C
:10432000DE2A000EDD2212000001F1A19AEF21F039
:104330009CEF21F0A6EF21F013C00AF014C00BF09F
:1043400011C00CF012C00DF0DBEC24F016BEABEF88
:1043500021F0ADEF21F0B3EF21F015C01AF016C037
:104360001BF0B7EF21F0000E1B6E000E1A6E000E50
:10437000196E000E186EC9EF21F0000E026E200EAD
:10438000016E11C003F012C004F02FEC21F0184AA6
:10439000192A1A50185C1950800A176E1B50800A8F
:1043A0001758D8A0D6EF21F0D8EF21F0BDEF21F0BB
:1043B0000001F1B1DEEF21F0E0EF21F0EAEF21F0B2
:1043C00013C00AF014C00BF011C00CF012C00DF0B5
:1043D000DBEC24F013C001F014C002F091EC25F0E6
:1043E0001A500124116E1B500220126E1200000E92
:1043F000066E04BE00EF22F0FEEF21F006EF22F081
:10440000036C041ED8B0042A010E066E02BE0DEF26
:1044100022F00BEF22F013EF22F0016C021ED8B055
:10442000022A010E061A000E086E000E076E0350D7
:104430000410D8B41EEF22F020EF22F048EF22F053
:10444000010E056E28EF22F0D89003360436052AB7
:1044500004AE2DEF22F02FEF22F024EF22F0D890BF
:10446000073608360350015C04500258D8A03BEFD1
:1044700022F03DEF22F042EF22F00350015E0450A3
:10448000025A0780D89004320332052E2FEF22F013
:104490000650D8B44EEF22F050EF22F054EF22F045
:1044A000076C081ED8B0082A07C001F008C002F047
:1044B0001200000E066E02BE62EF22F060EF22F0E4
:1044C00068EF22F0016C021ED8B0022A010E066EBF
:1044D00004BE6FEF22F06DEF22F073EF22F0036C59
:1044E000041ED8B0042A03500410D8B47AEF22F086
:1044F0007CEF22F0A0EF22F0010E056E84EF22F097
:10450000D89003360436052A04AE89EF22F08BEFEB
:1045100022F080EF22F00350015C04500258D8A032
:1045200094EF22F096EF22F09AEF22F00350015E12
:104530000450025AD89004320332052E8BEF22F039
:104540000650D8B4A6EF22F0A8EF22F0ACEF22F08C
:10455000016C021ED8B0022A01C001F002C002F0B4
:104560001200000E0114096E000E02140A6E800E75
:1045700003140B6E7F0E04140C6E09500A100B10FE
:104580000C10D8A4C6EF22F0C8EF22F0D0EF22F032
:10459000000E016E000E026E000E036E000E046E21
:1045A000000E0514096E000E06140A6E800E071424
:1045B0000B6E7F0E08140C6E09500A100B100C10B5
:1045C000D8A4E5EF22F0E7EF22F0EFEF22F0000EA3
:1045D000056E000E066E000E076E000E086E05508A
:1045E00001180FE1065002180CE10750031809E109
:1045F00008500418D8B4FFEF22F001EF23F004EFC5
:1046000023F0D89005EF23F0D8801200C1C0C5F088
:10461000C2C0C6F0000E0101116F000E106F28EF2E
:1046200023F0BFC09FF0C0C0A0F0C50E0001A16F75
:10463000000EA26FC3C0A3F0C4C0A4F022EC0AF025
:1046400000019F51010110270001A0510101112318
:10465000C5C0F6FFC6C0F7FF0800F5500009D8A492
:1046600034EF23F036EF23F011EF23F010C1BFF049
:1046700011C1C0F01200BF0E096EFF0E0A6E07C016
:104680000BF008C00CF009500B260A500C220C50FD
:104690000AE11A0E0B5CD8A050EF23F053EF23F081
:1046A000010E54EF23F0000E0D6E0E6A0D500E1029
:1046B000D8B45DEF23F05FEF23F066EF23F0200E18
:1046C0000710076E0850086E6AEF23F007C007F066
:1046D00008C008F0120081EF23F009C0F6FF0AC0FD
:1046E000F7FFF86A070EF76403D00800F55005D00D
:1046F000F6CFE1FFF7CFE2FFE75047EC24F0094A9D
:104700000A2A09C0F6FF0AC0F7FFF86A070EF76425
:1047100003D00800F55005D0F6CFE1FFF7CFE2FF58
:10472000E7500009D8A497EF23F099EF23F06DEF3D
:1047300023F0120003C007F004C008F001C009F024
:1047400002C00AF00750056E0850066E074A082A94
:1047500005C0F6FF06C0F7FFF86A09C0D9FF0AC016
:10476000DAFF094A0A2A070EF76403D00800F55059
:1047700005D0F6CFE1FFF7CFE2FFE750DF6EDF5065
:10478000D8A4C5EF23F0C7EF23F0A2EF23F0120067
:10479000B60EF66E4B0EF76E000EF86E01EE6AF076
:1047A00010EE04F00900F5CFEEFFE550E150FAE11C
:1047B000BA0EF66E4B0EF76E000EF86E0900F5CFCE
:1047C000FBF00900F5CFFCF001EE00F06A0EEE6A96
:1047D000E806FDE100EEEFF00C0EEE6AE806FDE102
:1047E000000EF86E00015DEF13F0CB0E0001D16FEB
:1047F000000ED26FC7C0D3F0C8C0D4F0000ED66F81
:10480000000ED56F000ED86F000ED76FD30EBF6F9E
:10481000000EC06FC9C0C1F0CAC0C2F0D10EC36FD4
:10482000000EC46F06EC23F00001D551C725D96EE8
:10483000D651C821DA6E000EDF6E1200010E076E2F
:10484000200E01180210D8B428EF24F02AEF24F02B
:1048500043EF24F0F70E036EFF0E046E01C005F067
:1048600002C006F00350052604500622065009E156
:10487000050E055CD8A03FEF24F041EF24F043EF94
:1048800024F0000E076E07C001F0026A1200086EE5
:1048900008C007F0F00E07168C500F0B07108C6E37
:1048A0008C848C8600F08C96000E026E010E016ED8
:1048B00093EC24F008C007F0073AF00E07168C506E
:1048C0000F0B07108C6E8C8600F08C96000E026E1B
:1048D000030E016E93EC24F01200086E08C007F07E
:1048E000F00E07168C500F0B07108C6E8C948C8674
:1048F00000F08C96000E026E010E016E93EC24F017
:1049000008C007F0073AF00E07168C500F0B07107F
:104910008C6E8C8600F08C96000E026E030E016E7B
:1049200093EC24F01200000E046E000E036EACEF48
:1049300024F0000E066E000E056E054A062A06508B
:1049400009E1A50E055CD8A0A8EF24F0AAEF24F099
:104950009DEF24F0034A042A0150035C02500458DE
:10496000D8A0B5EF24F0B7EF24F099EF24F01200AF
:10497000000E551A000E561A000E571A800E581ABD
:1049800051C041F052C042F053C043F054C044F013
:1049900055C045F056C046F057C047F058C048F0E3
:1049A0001BEC0DF041C051F042C052F043C053F037
:1049B00044C054F01200000E106E000E0F6EECEFAB
:1049C00024F00EC001F0026A0CC003F00DC004F028
:1049D0002FEC21F00F4A102A0F500A24D96E1050E4
:1049E0000B20DA6EDF500E6E0E50D8A4FAEF24F0D2
:1049F000FCEF24F0E1EF24F0120014BE0AEF25F0E2
:104A0000145006E11304D8B008EF25F00AEF25F0A2
:104A100018EF25F013C015F014C016F0151E161E61
:104A2000154A162A15C013F016C014F01CEF25F015
:104A300013C013F014C014F012000E6E020E0E60BC
:104A400024EF25F026EF25F02FEF25F00B500F0B6C
:104A500080090F6E0F506DEC24F036EF25F00B50EF
:104A60000F0BC0090F6E0F506DEC24F00CC009F055
:104A70000DC00AF06BEC23F01200BF0E036EFF0EA8
:104A8000046E01C005F002C006F003500526045074
:104A9000062206500AE11A0E055CD8A052EF25F056
:104AA00055EF25F0010E56EF25F0000E016E026A5B
:104AB00012000150021003100410D8B462EF25F068
:104AC00064EF25F06CEF25F0000E011A000E021ABB
:104AD000000E031A800E041A01C001F002C002F099
:104AE00003C003F004C004F01200D00E036EFF0EEA
:104AF000046E01C005F002C006F003500526045004
:104B0000062206500AE10A0E055CD8A08AEF25F0BD
:104B10008DEF25F0010E8EEF25F0000E016E026A7A
:104B2000120001C003F002C004F099EF25F0014A21
:104B3000022A01C0D9FF02C0DAFFDF50D8A4A3EFD8
:104B400025F0A5EF25F097EF25F00350015C016EED
:104B500004500258026E1200000E956E000E026E96
:104B60000F0E016E93EC24F0020E6DEC24F0280E73
:104B70006DEC24F0010E6DEC24F00C0E6DEC24F0C5
:104B8000060E6DEC24F0120001500302F3CF05F085
:104B9000F4CF06F001500402F3500626025003023F
:104BA000F350062605C001F006C002F01200010E07
:0E4BB0006DEC24F01200EE7C2B41010012008F
:020000040020DA
:08000000FFFFFFFFFFFFFFFF00
:020000040030CA
:0E00000000091F1EFF0181FF0FC00FE00F401F
:00000001FF
